:10000000F8FF022099010000F14E0100A94E010005
:10001000A94E0100A94E0100A94E0100A94E010000
:10002000A94E0100A94E0100A94E0100F14E0100A8
:10003000F14E0100A94E010005A2010075A70100C3
:10004000F14E0100F14E0100F14E0100F14E0100B0
:10005000F14E0100F14E0100F14E0100F14E0100A0
:10006000F14E0100F14E0100F14E0100F14E010090
:10007000F14E0100F14E0100F14E0100F14E010080
:10008000F14E0100F14E0100F14E0100F14E010070
:10009000F14E0100F14E0100F14E0100F14E010060
:1000A00091E40100CDE50100F14E0100F14E0100A7
:1000B000F14E0100F14E0100F14E0100053D01003D
:1000C000F14E0100A95C0100F14E010041FD00006C
:1000D000F14E010019640100F14E0100394C00009D
:1000E000F14E0100F14E0100F14E0100F14E010010
:1000F000F14E0100F14E0100F14E0100F14E010000
:10010000B57B0100C97B0100DD7B0100F17B0100B3
:1001100079D9010051430100F14E0100F14E010077
:10012000F14E0100F14E0100F14E0100F14E0100CF
:10013000F14E0100F14E0100F14E0100F14E0100BF
:10014000BD830100F14E01009D540100F14E0100FC
:10015000F92A0100F14E0100F14E0100F14E0100BB
:10016000F14E0100A94C000021E70100F14E010011
:10017000F14E0100F14E0100F14E0100F14E01007F
:10018000F14E0100F14E0100F14E0100F14E01006F
:10019000F14E0100F14E0100584B4CF2205210B5C7
:1001A0001A804DF628121A8000BF00BF14F0A4FE7A
:1001B000534B4FF030621A60524A9A60524ADA60EA
:1001C000524B4FF470021A60514A136813F4807353
:1001D00004D150490B604FF4A85313604E4B1A786A
:1001E000110703D51A7842F008021A704B4B4C499C
:1001F0002A221A704B4A4C4B8B4204D252F8040FFD
:1002000043F8040BF8E7494B494900228B4202D2DC
:1002100043F8042BFAE74749474A002352F82300E2
:1002200041F823000133662BF8D1444B444A802126
:1002300003F8011B9342FBD1424B3E4A1A60424BEA
:100240008A221A70A3F5805324225A70A0221A70B1
:100250009A799207FCD59A79D406FCD43B4A9379D3
:1002600003F00C03082B394BF9D103221A714622F3
:100270005A719A799006FCD5344A9179334B4906E4
:10028000FBD5334A4FF08271116009215160202261
:100290001A709A7902F00C020C2AFAD12D4B2E4AD0
:1002A0001A602E4B2E4A1A6000225A60072243F829
:1002B000042C2C4AC3F80C2D62B60FF045FF154BE9
:1002C0001B68DA0705D528480FF0F6FE274B284AA9
:1002D0001A60284B1B785B0609D5244C244B2268F6
:1002E0009A4204D120480FF0E7FE0023236014F067
:1002F00009FE21F0C7FA18F0A5F8FEE70E20054028
:1003000030800440823F04000100002B88ED00E0B3
:1003100010D0034014D0034002D0074000E0074053
:100320004019FF1FB4C90200F806FF1F4019FF1F44
:10033000941200200002FF1F0000000000E400E013
:1003400056E400E008ED00E00050064000400640A2
:100350004480044004800440C010050014E000E024
:10036000BFD401000000202000DD68501CE00340E5
:10037000A5C3945A00F00740FFFFFFFFFFFFFFFFF8
:10038000FFFFFFFFFFFFFFFFFFFFFFFFFFFFFFFF7D
:10039000FFFFFFFFFFFFFFFFFFFFFFFFFFFFFFFF6D
:1003A000FFFFFFFFFFFFFFFFFFFFFFFFFFFFFFFF5D
:1003B000FFFFFFFFFFFFFFFFFFFFFFFFFFFFFFFF4D
:1003C000FFFFFFFFFFFFFFFFFFFFFFFFFFFFFFFF3D
:1003D000FFFFFFFFFFFFFFFFFFFFFFFFFFFFFFFF2D
:1003E000FFFFFFFFFFFFFFFFFFFFFFFFFFFFFFFF1D
:1003F000FFFFFFFFFFFFFFFFFFFFFFFFFFFFFFFF0D
:10040000FFFFFFFFFFFFFFFFFFFFFFFFDEF9FFFF23
:1004100010B5054C237833B9044B13B10448AFF33E
:1004200000800123237010BD4019FF1F0000000051
:10043000B0C90200084B10B51BB108490848AFF31A
:1004400000800848036803B910BD074B002BFBD0A0
:10045000BDE81040184700BF000000004419FF1F0E
:10046000B0C902004019FF1F00000000704700BF24
:1004700070B5144E144D1549C0B030460DF0A0FCB7
:100480000FCD01AC0FC40FCD0FC40FCD0FC495E835
:10049000070003C40E4D227001A930460DF090FCF8
:1004A0000FCD01AC0FC40FCD0FC40FCD0FC42B68FF
:1004B00024F8023B01A91B0C304623700DF080FC90
:1004C00040B070BD2C0B0020AC8102008081020086
:1004D000E881020038B504460D4612F065FD00289B
:1004E000FBD02068B0F5805F03DA294612F054FE95
:1004F00020680430206038BD38B504460D4612F03F
:1005000053FD0028FBD02068B0F5805F03DA294650
:1005100012F052FD20680130206038BD38B5044625
:100520000D4612F041FD0028FBD02068B0F5805F39
:1005300003DA294612F0A6FD20680230206038BD9B
:1005400038B5046805462046043412F06FFC2C6070
:1005500038BD00BF38B5046805462046013412F0A6
:10056000B5FB2C6038BD00BF38B504680546204691
:10057000023412F001FC2C6038BD00BF2DE9F041BF
:1005800086230360B4B004463F4802F0A1F8054654
:1005900012F00AFD0028FBD02368B3F5805F04DA6F
:1005A0001846294612F0F8FD23683848384D0433C0
:1005B00023600CF0A9FE374937480DF001FC37489D
:1005C00006F060FF364934480DF0FAFB354802F07A
:1005D00017FF35480DF076FB344803F0F9FD284647
:1005E0000EF0A2FE324807F099FA324800F032FBD2
:1005F000314804F0E9FA314805F018FBAB69D4F84A
:1006000000808222002B22601EDDA8F1820512F0FC
:10061000CBFC0028FBD02068B0F5805F2EDB0430D7
:100620004FF4805102AF2060254A00912B46384696
:10063000C82121F0DDFFC4F80080394616480DF0CE
:10064000BFFB34B0BDE8F08112F0AEFC0028FBD057
:100650002068B0F5805F02DA002112F09DFD194E8E
:100660000FCE02AF3D460FC50FCE0FC50FCE0FC543
:10067000336825F8023B1B0C2B70DCE7294612F08F
:100680008BFD2068CBE700BFB019FF1FC009002019
:10069000A40C00201C8202002C0B0020C01BFF1F9A
:1006A00034820200E419FF1F7C0A0020441AFF1F55
:1006B000081EFF1F6019FF1F901AFF1FB81AFF1FA7
:1006C0007C82020048820200F0B504468220B7B066
:1006D000206012F0ABFB05468620206012F0A6FBDE
:1006E0008A2306462360434801F0F2FF2B46424A24
:1006F0000190C821009604A821F07AFF04A93F4880
:100700000DF05EFB6A1E40F6FE739A4200D86EB989
:10071000C82100962B463A4A04A821F069FF04A993
:1007200036480DF04DFB012037B0F0BD314801F0E7
:10073000CFFFB0421ED02F4801F0CAFF0746304617
:1007400020F000F800222F4B20F09CF9CDE90201A7
:10075000384620F007F800222A4B20F093F92A4A65
:10076000CDE90001C82104A821F042FF04A92348D3
:100770000DF026FB25480CF0E5FD254806F0EEFDC2
:10078000244802F077FE24480DF0B6FA234803F01F
:1007900021FD23480EF0A8FD224807F0B1F92248B8
:1007A00000F04AFA214804F015FA214805F024FA2D
:1007B0002368823BAB42B6D08223236012F0F4FB65
:1007C0000028FBD02068B0F5805F03DA002112F02A
:1007D000E3FC2068174A043020602B460090C821B3
:1007E00004A821F005FF04A904480DF0E9FA00204F
:1007F00037B0F0BDB019FF1FA88202002C0B0020FB
:100800008083020000002440F0820200C009002022
:10081000C01BFF1FE419FF1F7C0A0020441AFF1FA2
:10082000A40C0020081EFF1F6019FF1F901AFF1F55
:10083000B81AFF1F3483020038B503220C46054660
:1008400008460B4922F0CAF960B120460322094943
:1008500022F0C4F908B1002038BD2846FFF78EFE0B
:10086000012038BD2846FFF72FFF012038BD00BF0B
:10087000CC830200D0830200036870B51446234481
:1008800040F2FD7293420FDC05460E4612F08CFBDF
:100890000028FBD030462246296812F03FFD2B6825
:1008A0001C442C60012070BD002070BDF8B50368A9
:1008B00017463B4440F2FD72934215DC06460D4656
:1008C00012F072FB0028FBD0002FC8BF7F1909DD92
:1008D0003468204612F0FAF90134346005F8010B4F
:1008E000BD42F5D10120F8BD0020F8BD12F0A6B937
:1008F00001B1704730B5BFB0037C0446806A0A93EB
:100900001FF042FFCDE90801606A1FF03DFF256A34
:10091000134AFA2303FB05F382FB0352DB17CDE9ED
:100920000601C3EB62101FF01DFF0E4B002220F0EA
:10093000A9F8CDE90401A0691FF026FFCDE9020165
:1009400060691FF021FF084ACDE900010CA8C82109
:1009500021F04EFE0CA905480DF032FA3FB030BD33
:100960001F85EB5100408F40EC8302002C0B0020D0
:1009700038B504460AF0E2FB094B2360002309481E
:10098000094984F82C300022012560622562A162A9
:10099000E2642374636484F84830204638BD00BFA5
:1009A000E88302000000C040BF0E1C3E10B50446A4
:1009B00043F2D40015F0BCFA102015F01DFB15F021
:1009C00091FC0023E3612046024A0349BDE8104040
:1009D0000AF038BC108402005884020030B5BFB061
:1009E000037C0446806A0A931FF0CEFECDE908011D
:1009F000606A1FF0C9FE256A134AFA2303FB05F358
:100A000082FB0352DB17CDE90601C3EB62101FF036
:100A1000A9FE0E4B002220F035F8CDE90401A069B3
:100A20001FF0B2FECDE9020160691FF0ADFE084A79
:100A3000CDE900010CA8C82121F0DAFD0CA9054878
:100A40000DF0BEF93FB030BD1F85EB5100408F4027
:100A5000EC8302002C0B002038B5074C07490546F3
:100A600020460DF0ADF928460AF0C0FB20460449A7
:100A7000BDE838400DF0A4B92C0B002060840200C2
:100A80008484020070B582B006460D460AF060FB11
:100A9000D0B9044605220E49284622F09FF810B12D
:100AA000204602B070BD02AC681D44F8040D21461A
:100AB00023F012FB21467062019823F00DFB012404
:100AC000B062204602B070BD0124204602B070BD65
:100AD000D4840200F8B5044615F026FC98B9524BB0
:100AE000E2691B68013B9B1AC62B94BF01230023BC
:100AF000237403D900232062A36163612046BDE80B
:100B0000F8400AF04FBB656C15F020FC254485F8D1
:100B10002C00636CE21892F82C100D291CD083B1C4
:100B200094F84820AAB9092BC9BF0023E2186364CE
:100B30002246002382F82C302046BDE8F8400AF017
:100B400031BB94F82C1052295FD094F8481000293A
:100B5000EFD001336364E6E7002182F82C1094F8AB
:100B60004820002A4AD0023B052B47D82E48E2698C
:100B700003682E4D0068E0619A1AFA2303FB02F322
:100B800085FB0305DB17C3EB65156B1EB3F5F97F1A
:100B9000226233D80A2204F12D0023F05BFB1FF000
:100BA000E1FD1FA3D3E900231FF042FE20F038F936
:100BB000E16C064620F088F9A16AE66407463046F3
:100BC00020F082F9626C606104F12C01013204F1C1
:100BD000360021F0B3F927F00040154920F01CFC45
:100BE000B8B1284620F026FA0146384620F02AFB04
:100BF000104920F073FA0122A06100E000220023D6
:100C0000227484F84830636478E7012284F848202D
:100C10009FE70023A3610122F1E700BFAFF300804B
:100C2000A60A462575029A3F000D00201F85EB514C
:100C30000000A04100007A4438B5054D044628461E
:100C4000FFF77EFCA0622846FFF77AFC606238BDA1
:100C50005C19FF1F38B5064C816A05462046FFF730
:100C600039FC696A2046BDE83840FFF733BC00BF55
:100C70005C19FF1F704700BF10B504464068034B66
:100C8000236008B116F08AF9204610BDDC8302000B
:100C9000F8B50E4C0E4F0F4E20460AF04FFA0E4B91
:100CA0002360012300252362002320466762A66299
:100CB000E5642374636484F8483084F82C30074A70
:100CC0000749BDE8F84020F0B7BD00BF6019FF1F1D
:100CD0000000C040BF0E1C3EE8830200E007FF1F7B
:100CE000790C0000FFFFFFFF0449C1604FF07E5206
:100CF0000021017082604260704700BF0AD7233B29
:100D00002DE9F041416004460F46826000211846FB
:100D100090461E4620F08AFB78B9034600252370D2
:100D20003046294620F082FB50B94FF07E532561B2
:100D30006561A361E361BDE8F0814FF00103EDE778
:100D40004146404620F0C2F8E6683146804620F031
:100D5000BDF841460546A061304620F0B5F8294669
:100D600020F070FA3946E061384620F0AFF80146CD
:100D70000746304620F0AAF8294620F063FA3946A3
:100D80002061304620F0A0F8294620F05BFA60612F
:100D9000BDE8F081F8B503783BB94FF07E520023EF
:100DA0008261C26103614361F8BD816804460846FF
:100DB00020F08CF8E6683146074620F087F839467F
:100DC0000546A061304620F07FF8294620F03AFA27
:100DD0006168E061084620F079F801460746304630
:100DE00020F074F8294620F02DFA3946206130466B
:100DF00020F06AF8294620F025FA6061F8BD00BFAE
:100E00000023036243628362C3627047037870B554
:100E1000044613B90020A06270BDC069E16A256A6A
:100E200000F1004020F05AF921690646284620F0DA
:100E300055F90146304620F049F8616A0646606976
:100E400020F04CF90146304620F040F86562E0623F
:100E5000A06270BD2DE9F0430E4683B0044601A99F
:100E60003046002223F0F6F9019D031C18BF012330
:100E7000AE4223700ED303BB4FF07E520023A2611B
:100E8000E26123616361AE4234BF2846002003B0B3
:100E9000BDE8F083284601A923F01EF92F46019DE5
:100EA0006060AF422E4632D2284601A923F014F9E1
:100EB0002378019DA060002BDED0A168084620F0B9
:100EC00005F8D4F80C80414681461FF0FFFF4946E3
:100ED0000746A06140461FF0F7FF394620F0B2F9FF
:100EE0006168E06108461FF0F1FF01468146404617
:100EF0001FF0ECFF394620F0A5F949462061404635
:100F00001FF0E2FF394620F09DF96061BBE73E46E5
:100F10002378B0E7F0B5044685B080682778164698
:100F20000D461FF031FCCDE9020160681FF02CFC7A
:100F30003B46CDE90001054A3146284621F058FBE1
:100F4000284605B0BDE8F04021F0DABDDC8402009F
:100F5000037803B9704710B5044641680448FFF7A9
:100F6000B9FAA1680248BDE81040FFF7B3BA00BF64
:100F70005C19FF1FF8B5037804463BB94FF07E5269
:100F80000023A261E26123616361F8BD1948FFF7A4
:100F9000D7FA60601748FFF7D3FA2378A060002BD8
:100FA000ECD001461FF092FFE668314607461FF07D
:100FB0008DFF39460546A06130461FF085FF294662
:100FC00020F040F96168E06108461FF07FFF0146AC
:100FD000074630461FF07AFF294620F033F939469C
:100FE000206130461FF070FF294620F02BF9606128
:100FF000F8BD00BF5C19FF1F30B4074A074C826080
:101000004FF07E55002201214560C460417002709E
:10101000027430BC704700BF0AD7233B00247449D8
:1010200038B50478C26041603CB94FF07E5200236D
:10103000C26102624361836138BD044608461546B9
:101040001FF044FF0A4B23620146E061A06820F0D4
:10105000F9F808496061A061284620F0DDF94FF0F9
:10106000010308B1237438BD0346237438BD00BFA3
:10107000000080BF0000C6422DE9F04383B002AFFC
:101080000E4647F8041D044639463046002223F038
:10109000E1F8019D003018BF0120AE42207010D34E
:1010A0002378002B32D14FF07E520023E26122627E
:1010B0006361A361AE4234BF2846002003B0BDE89F
:1010C000F0832846394623F007F8A846019D606062
:1010D000A845A94641D22846394622F0FDFF2049BD
:1010E000E060054620F098F948BB019D2E46A945D1
:1010F00031D228463946002223F0ACF82378019DEE
:10110000003018BF01206070002BCCD06168084609
:101110001FF0DCFE134B23620146E061A06820F063
:1011200091F811496061A061E06820F075F94FF015
:10113000010308B12374BDE703462374BAE72846C8
:10114000002120F07DF9019D18B101232E46237462
:10115000CDE72E46CBE74E46A2E74646A0E700BFC6
:1011600000247449000080BF0000C64270B5037CB3
:1011700086B004460D461646CBB1C0681FF004FB8E
:1011800002460B46617860680491CDE902231FF0A6
:10119000FBFA23780A4ACDE900013146284621F0BE
:1011A00027FA284606B0BDE8704021F0A9BC02A38A
:1011B000D3E90023E6E700BF0000000080842E4151
:1011C000E884020003783BB94FF07E520023C261ED
:1011D0000262436183617047416810B50446084666
:1011E0001FF074FE0A4B23620146E061A06820F004
:1011F00029F808496061A061E06820F00DF94FF01E
:10120000010308B1237410BD0346237410BD00BF51
:10121000000080BF0000C642002343628362C362B5
:1012200003637047F8B503783BB30446006A216B4B
:10123000676A00F100401FF051FF616905463846BA
:101240001FF04CFF014628461FF040FEA16A0546EC
:10125000A0691FF043FF014628461FF037FE237C9C
:10126000E062054633B1E668314620F0F3F838B164
:10127000E66235462563A762F8BD0023C362F8BD68
:1012800006F100463146284620F0C6F80028EFD186
:10129000F0E700BF037803B9704710B50446416812
:1012A0000448FFF717F9E1680248BDE81040FFF76E
:1012B00011B900BF5C19FF1F38B5037804463BB96C
:1012C0004FF07E520023E26122626361A36138BD68
:1012D0001248FFF735F960601048FFF731F92378BD
:1012E000E0600546002BEBD0616808461FF0EEFD7C
:1012F0000B4B23620146E061A0681FF0A3FF094980
:101300006061A061284620F087F84FF0010308B122
:10131000237438BD0346237438BD00BF5C19FF1F1A
:10132000000080BF0000C642F8B5044601254FF01A
:101330007E561F4B1F4A84F86950002700251E481F
:1013400020626267E261676163642367C4F8A83062
:10135000C4F8D830C4F8083184F8385084F868509C
:1013600084F8785084F89C5084F8CC5084F8FC5071
:10137000257025762664E663E666C4F8A460C4F8A2
:10138000A060C4F8D460C4F8D060C4F80461C4F8A4
:101390000061E660A01C082221F070FC25746661E3
:1013A0006562A562E562256384F834502046F8BD85
:1013B0000AD7233B00247449002474C900238365A1
:1013C000C36503664366C0F88C30C0F89030C0F83F
:1013D0009430C0F89830C0F8BC30C0F8C030C0F8C5
:1013E000C430C0F8C830C0F8EC30C0F8F030C0F8F5
:1013F000F430C0F8F830C0F81C31C0F82031C0F823
:101400002431C0F8283170472DE9F04784B00F46E9
:10141000019106460C4600E00194254601342878E7
:1014200020F070FA0028F7D106F10208404621F0BA
:1014300067FB414602460446384621F0CFFBB0F137
:1014400000080CBF0127002703D0384604B0BDE8D0
:10145000F08725440A22284602A9019522F0FAFEC7
:10146000029B019A003018BF012093423070ECD9E2
:10147000184602A9019322F02FFE0299019BF06009
:101480009942E2D906F16800FFF7F6FD04460190A3
:10149000002800F0DB80424603A922F0DBFE039D1A
:1014A000031C18BF0123AC4286F89C30A846C0F04C
:1014B000B880002B40F089814FF07E520023C6F89F
:1014C000B420C6F8B820C6F8AC30C6F8B030A54293
:1014D000A84640F21E820195002D00F02982284680
:1014E000002203A922F0B6FE039C031C18BF0123AF
:1014F000A04586F8CC3025467ED3002B40F00B81EA
:101500004FF07E520023C6F8E420C6F8E820C6F863
:10151000DC30C6F8E0304445F36A40F2F3810194D0
:10152000002B00F0BD8196F8CC304FF00008C6F8D3
:10153000D080002B40F079814FF07E53C6F8DC80DC
:10154000C6F8E0802546C6F8E430C6F8E830002D3D
:1015500000F0DD81002203A9284622F07BFE039CD7
:10156000031C18BF0123AC4286F83830A04630D89F
:10157000002B40F000814FF07E52002332657265EF
:10158000B364F364AC428CBF204600200190002875
:1015900000F0BD81002202A922F05CFE019B003018
:1015A00018BF0120307613B10298984250D81A78AB
:1015B00022B9B949B9480CF003FC46E718460A229B
:1015C000002122F047FE003018BF012086F83400C9
:1015D0003BE7204603A922F07FFD039DF063A84569
:1015E0002C4680F0A78103A9284622F075FD96F8C5
:1015F0003830039C3064BBE7204603A922F06CFD21
:10160000039CC6F8D000A542A04680F08981204600
:1016100003A922F061FD96F8CC30039CC6F8D400F3
:101620006BE7284603A922F057FD039DC6F8A000EA
:10163000A8452C4680F07881284603A922F04CFD6D
:1016400096F89C30039DC6F8A40032E70346AEE747
:1016500002A922F041FD02A90446029822F03CFDB5
:101660000546014620461FF0F5FE002800F00581E2
:1016700004F1004325461C46019B3462F561002BB2
:1016800095D00298984292D90A2201A922F0E2FD4F
:10169000003018BF0120307401A9019822F00AFD22
:1016A0001FF0BEFB019D70610022284603A922F0B5
:1016B000D1FD039C031C18BF0123A54286F8FC3012
:1016C000A04613D3002B40F0ED804FF07E52002354
:1016D000C6F81421C6F81821C6F80C31C6F8103126
:1016E000AC428CBF23460023019360E7204603A948
:1016F00022F0F2FC039CC6F80001A045254680F0CC
:101700000B81204603A922F0E7FC96F8FC30039CED
:10171000C6F80401D6E7D6F8D41008461FF0D6FB69
:10172000D6F8D890494682461FF0D0FB5146054670
:10173000C6F8E40048461FF0C7FB29461FF082FDAB
:10174000D6F8D010C6F8E80008461FF0BFFB0146E7
:10175000824648461FF0BAFB29461FF073FD5146EA
:10176000C6F8DC0048461FF0AFFB29461FF06AFDB3
:10177000C6F8E000CFE6316C08461FF0A7FBD6F8AC
:101780004490494682461FF0A1FB51468046306591
:1017900048461FF099FB41461FF054FDF16B706500
:1017A00008461FF093FB0146824648461FF08EFB19
:1017B00041461FF047FD5146B06448461FF084FB88
:1017C00041461FF03FFDF064DCE6D6F8A410084661
:1017D0001FF07CFBD6F8A890494682461FF076FBA6
:1017E00051468046C6F8B40048461FF06DFB41469E
:1017F0001FF028FDD6F8A010C6F8B80008461FF064
:1018000065FB0146824648461FF060FB41461FF0DB
:1018100019FD5146C6F8AC0048461FF055FB41463D
:101820001FF010FDC6F8B00051E6D6F8D4100846F7
:101830001FF04CFBD6F8D850294682461FF046FBD5
:1018400051468146C6F8E40028461FF03DFB494654
:101850001FF0F8FC4146C6F8E80028461FF036FBAA
:1018600049461FF0EFFC4946C6F8DC0028461FF049
:10187000E9FC2546C6F8E00069E6294620461FF047
:10188000C1FD00283FF4F8AE4FF07E5128461FF00E
:101890001BFB0446F0E600BFF88402002C0B00207E
:1018A000254654E6D6F8041108461FF00FFBD6F87B
:1018B0000891494682461FF009FB51468046C6F80A
:1018C000140148461FF000FB41461FF0BBFCD6F850
:1018D0000011C6F8180108461FF0F8FA01468246C2
:1018E00048461FF0F3FA41461FF0ACFC5146C6F8DB
:1018F0000C0148461FF0E8FA41461FF0A3FCC6F869
:101900001001EDE600240194002B7FF40CAE0023BF
:101910004DE600230193FAE7454696F8FC30D1E600
:10192000A84696F8CC30E8E5444696F89C30C0E5E9
:101930002B463CE6454696F8383019E62DE9F0434B
:10194000054687B0C06817460E461EF01DFF2A7870
:101950000092CDE90201AB1C39463046684A20F0BE
:1019600047FE95F87830044606EB0008C0EB0709FF
:10197000002B00F0BB80686F1EF006FF02460B468E
:1019800095F86910E86E0491CDE902231EF0FCFE83
:1019900095F868305B4ACDE900014946404620F0A1
:1019A00027FE404621F0ACF80444D5F8A40095F891
:1019B0009C901EF0E9FECDE90201D5F8A0001EF0D2
:1019C000E3FE06EB04083A1B4B46CDE90001114645
:1019D00040464D4A20F00CFE404621F091F8044468
:1019E000D5F8D40095F8CC901EF0CEFECDE90201DA
:1019F000D5F8D0001EF0C8FE06EB04083A1B4B4693
:101A0000CDE90001114640463F4A20F0F1FD404635
:101A100021F076F80444286C95F838901EF0B4FE56
:101A2000CDE90201E86B1EF0AFFE06EB04083A1B9D
:101A30004B46CDE9000111464046334A20F0D8FD1F
:101A4000404621F05DF80444E86995F818801EF0DE
:101A50009BFECDE90201286A1EF096FEC4EB070E3C
:101A60003219CDE90001434671461046264A20F05E
:101A7000BFFD0444686995F810801EF085FEC4EB34
:101A8000070E32194346CDE90001714610461F4A40
:101A900020F0AEFD0444D5F8040195F8FC901EF04A
:101AA00073FECDE90201D5F800011EF06DFE06EBD4
:101AB00004083A1BCDE900014B4611464046124A44
:101AC00020F096FD404621F01BF8E96A95F8343085
:101AD0000F4A0D1C044418BF0125391B301900950D
:101AE00020F086FD204407B0BDE8F08302A3D3E9CF
:101AF000002345E7AFF300800000000080842E4102
:101B000038850200E8840200DC840200448502007B
:101B10004C85020010B4019CC4624162826203637E
:101B200010BC70472DE9F84F037C0446002B33D0DE
:101B300090F8FC30002B00F04481436A416918683A
:101B40001FF0CCFA0546D4F81801D4F82811C4F8CF
:101B50001C5100F100401FF0C1FAD4F80C110646E8
:101B600028461FF0BBFA014630461FF0AFF9D4F803
:101B700020110646D4F810011FF0B0FA0146304695
:101B80001FF0A4F92378C4F82051C4F82401C4F844
:101B900028013BB9BDE8F88F0023C0F82431237831
:101BA000002BF7D094F83830002B40F0DB80636ACC
:101BB0001D6894F8CC30C4F82C51002B00F0F8804C
:101BC000E36A002B00F05481A76A1968D4F8D000AA
:101BD0001FF084FA39681FF079F90546D4F8E80057
:101BE000D4F8F810C4F8EC5000F100401FF076FA79
:101BF000D4F8DC10064628461FF070FA014630463D
:101C00001FF064F9D4F8F0100646D4F8E0001FF095
:101C100065FA014630461FF059F9C4F8F05094F8BF
:101C200034A0D4F82C51C4F8F4000646C4F8F800E7
:101C3000C4F83001BAF1000F24D0396828461FF0EB
:101C400043F91EF0A1FDA4A3D3E9002380468946F1
:101C50001FF07EF8002840F0E88040464946A0A3E7
:101C6000D3E900231FF056F860B128461EF08CFD22
:101C70009DA3D3E900231EF029FC1FF0D1F80546EF
:101C8000C4F82C01314628461FF01EF9E1681FF008
:101C900025FA94F89C30C4F8340105463BB3D4F8D7
:101CA000B800D4F8C810C4F8BC5000F100401FF0D0
:101CB00015FAD4F8AC10064628461FF00FFA014674
:101CC00030461FF003F9D4F8C0100646D4F8B0002F
:101CD0001FF004FA014630461FF0F8F8C4F8C0506F
:101CE000C4F8C400C4F8C800C4F83401054694F828
:101CF0006830002B6DD06378C4F88C50002B40F016
:101D00008A80D4F88800D4F8981000F100401FF0C1
:101D1000E5F9E16F064628461FF0E0F90146304636
:101D20001FF0D4F8D4F890100646D4F880001FF0C5
:101D3000D5F9014630461FF0C9F894F87830C4F858
:101D4000940006464BB1676F39461FF083FB0028AD
:101D500000F08480C4F894703E46C4F89860C4F8DB
:101D600090505AE0636A606D1E68616EA66500F16E
:101D700000401FF0B3F9A16C054630461FF0AEF9E4
:101D8000014628461FF0A2F8E16D0546E06C1FF001
:101D9000A5F9014628461FF099F894F8CC30E6657D
:101DA000054620666066C4F82C01002B7FF408AF5E
:101DB000A76A94F834A03E68D4F82C51C4F8306176
:101DC00038E7436A416918681FF088F9C4F82401AC
:101DD000E5E6C4F838512846D4F824111FF076F807
:101DE000237EC4F83C01054683B1E66931461FF005
:101DF00031FB40BB266A284631461FF00DFB226BA3
:101E000038B3012316606370BDE8F88F226B106051
:101E10006370BDE8F88FD4F89460284631461FF00F
:101E200055F80546C4F83801D5E728461EF0ACFC45
:101E30002DA3D3E900231EF047FB1EF0F1FF05465A
:101E4000C4F82C011EE7226B012316606370BDE805
:101E5000F88F002315606370BDE8F88F07F1004725
:101E6000394630461FF0D8FA00287FF473AF74E784
:101E700094F834A0A76ABAF1000F39D1D4F8F81059
:101E8000D7F800B0D4F8F060D4F8E830C4F8ECB07B
:101E900003F100401FF022F9D4F8DC1080465846C8
:101EA0001FF01CF9014640461FF010F8D4F8E0106E
:101EB000804630461FF012F9014640461FF006F8F2
:101EC000C4F8F0B00646C4F8F400C4F8F800C4F84A
:101ED0003001AFE6AFF30080182D4454FB210940D8
:101EE000182D4454FB2109C0182D4454FB211940DE
:101EF000D4F8F060D7F800B0314658461EF0E4FF41
:101F00001EF042FC28A3D3E90023804689461EF038
:101F10001FFFE8B130461EF037FC25A3D3E90023AC
:101F20001EF0D4FA1EF07CFFC4F8F0000646D4F888
:101F3000F8001EF029FC1EA3D3E900231EF0C6FA08
:101F40001EF06EFFC4F8F8000146D7F800B09BE71A
:101F50004046494618A3D3E900231EF0DBFE10B922
:101F6000D4F8F81090E730461EF00EFC10A3D3E929
:101F700000231EF0A9FA1EF053FFC4F8F000064635
:101F8000D4F8F8001EF000FC09A3D3E900231EF0EA
:101F90009BFA1EF045FFC4F8F8000146D7F800B0E0
:101FA00072E700BFAFF30080182D4454FB210940B5
:101FB000182D4454FB211940182D4454FB2109C00D
:101FC00090F86830017810B504460BB141F0020179
:101FD00094F89C300BB141F0040194F8CC300BB173
:101FE00041F0080194F838300BB141F01001237E24
:101FF0000BB141F02001237C0BB141F0400194F87A
:10200000FC300BB141F0800194F834300BB141F455
:1020100080713048FEF782FA237863B9237E03B9D2
:1020200010BD216A2B48FEF755FAE1692948BDE841
:102030001040FEF74FBAE1682648FEF74BFA94F8D5
:102040006830002B3DD194F89C307BBB94F8CC30A9
:102050000BBB94F83830ABB9237C002BDED0616920
:102060001C48FEF737FA94F8FC30002BD6D0D4F891
:1020700000111848FEF72EFAD4F804111548FEF79F
:1020800029FACBE7E16B1348FEF724FA216C1148DB
:10209000FEF720FAE0E7D4F8D0100E48FEF71AFA5F
:1020A000D4F8D4100B48FEF715FAD2E7D4F8A010F4
:1020B0000848FEF70FFAD4F8A4100648FEF70AFA0B
:1020C000C4E7E16E0348FEF705FA616F0148FEF7C9
:1020D00001FAB8E75C19FF1FF8B50446AF48FEF7F0
:1020E00043FAC0F3400200F00101C0F3800384F81A
:1020F0006820C0F30022C0F3C007C0F30016C0F38D
:102100008015217084F89C30C0F3C011C0F34013D7
:1021100084F83420C20784F8CC7084F838602574C1
:1021200084F8FC10237609D43BB19C48FEF708FAEA
:1021300020629A48FEF704FAE061F8BD9748FEF77E
:10214000FFF994F86830E060002B38D14FF07E52F0
:102150000023C4F88420C4F88820E367C4F88030E2
:1021600094F89C30002B40F0DA804FF07E52002330
:10217000C4F8B420C4F8B820C4F8AC30C4F8B03007
:1021800094F8CC30002B40F08D804FF07E5200232D
:10219000C4F8E420C4F8E820C4F8DC30C4F8E03027
:1021A00094F83830002B49D14FF07E52002322653D
:1021B0006265A364E364237C53BB237EB4E7774862
:1021C000FEF7BEF9E0667548FEF7BAF994F8683094
:1021D00060670546002BB9D0E16E08461EF076FE1A
:1021E0006F4BC4F888300146C4F88400206F1FF09C
:1021F00029F86C49E067C4F8800028461FF00CF904
:102200004FF00103002800F0C78084F87830A7E77A
:102210006248FEF795F994F8FC306061002B40F0BD
:10222000C3804FF07E510022237EC4F81411C4F8FD
:102230001811C4F80C21C4F8102175E75748FEF7AF
:102240007FF9E0635548FEF77BF994F83830206455
:10225000002BA9D001461EF039FE666C31460746B8
:102260001EF034FE39460546206530461EF02CFE31
:1022700029461EF0E7FFE16B606508461EF026FE6A
:102280000146074630461EF021FE29461EF0DAFFC1
:102290003946A06430461EF017FE29461EF0D2FFD4
:1022A000E06488E73D48FEF74BF9C4F8D0003B48AE
:1022B000FEF746F994F8CC30C4F8D400002B3FF474
:1022C00064AF01461EF002FED4F8D86031460746DE
:1022D0001EF0FCFD39460546C4F8E40030461EF009
:1022E000F3FD29461EF0AEFFD4F8D010C4F8E80084
:1022F00008461EF0EBFD0146074630461EF0E6FD9F
:1023000029461EF09FFF3946C4F8DC0030461EF017
:10231000DBFD29461EF096FFC4F8E00040E71F48A9
:10232000FEF70EF9C4F8A0001C48FEF709F994F86E
:102330009C30C4F8A400002B3FF417AF01461EF0F8
:10234000C5FDD4F8A860314607461EF0BFFD3946EA
:102350000546C4F8B40030461EF0B6FD29461EF00E
:1023600071FFD4F8A010C4F8B80008461EF0AEFD06
:102370000146074630461EF0A9FD29461EF062FFC1
:102380003946C4F8AC0030461EF09EFD29461EF0CA
:1023900059FFC4F8B000F3E6034636E75C19FF1FA7
:1023A000000080BF0000C6421E48FEF7C9F8C4F80E
:1023B00000011C48FEF7C4F894F8FC30C4F804018E
:1023C000002B3FF42EAF01461EF080FDD4F80861CB
:1023D000314607461EF07AFD39460546C4F8140119
:1023E00030461EF071FD29461EF02CFFD4F8001176
:1023F000C4F8180108461EF069FD0146074630463C
:102400001EF064FD29461EF01DFF3946C4F80C017C
:1024100030461EF059FD29461EF014FF237EC4F8F5
:10242000100181E65C19FF1F38B5841C20460D465B
:1024300020F066FB29460246204620F0CFFBB0FA8A
:1024400080F0400938BD00BF70B50546436AD5F835
:1024500030611B68D0F82C0188600C464B60314617
:102460001EF032FDE9681EF039FE2B6BD5F8942082
:10247000D5F834112161E06062611A68AB6AA2612B
:102480001A68D5F8243163622662E26170BD00BF2C
:10249000F0B5E1B0002A00F0B4800C46002900F04D
:1024A000B080054616461F46594AAB1C4FF496713C
:1024B00015A820F09DF815A956480BF081FC384668
:1024C0001EF050F90022544B1EF0DCFA3346CDE9E1
:1024D0000001524A4FF4967115A820F089F815A909
:1024E0004C480BF06DFCEB6A4D4A003318BF0123DA
:1024F0004FF4967115A820F07BF815A945480BF00C
:102500005FFC484943480BF05BFC474941480BF0EE
:1025100057FC46493F480BF053FC45493D480BF0FA
:102520004FFC44493B480BF04BFC434939480BF006
:1025300047FC424937480BF043FC414935480BF012
:102540003FFC404933480BF03BFC3F4931480BF01E
:1025500037FC3E492F480BF033FC3D492D480BF02A
:102560002FFC002EC8BF002545DD606A1EF00CF967
:10257000CDE91201206A1EF007F9CDE91001E069EA
:102580001EF002F9CDE90E01A0691EF0FDF8CDE9BB
:102590000C0160691EF0F8F8CDE90A0120691EF00F
:1025A000F3F8CDE90801E0681EF0EEF8CDE9060188
:1025B000A0681EF0E9F8CDE9040160681EF0E4F8B7
:1025C000CDE9020154F8280B1EF034FD1EF0DCF8B2
:1025D000114B00221EF056FA1E4ACDE900014FF4BD
:1025E000967115A820F004F8013515A909480BF0DB
:1025F000E7FBAE42B9D1184906480BF0E1FB61B0E8
:10260000F0BD164903480BF0DBFB61B0F0BD00BF25
:10261000688502002C0B0020000059407C850200D8
:10262000AC850200DC850200F08502000486020011
:10263000348602005486020070860200A4860200DE
:10264000C4860200F086020008870200308702007C
:10265000548702006C8702005C87020054850200E8
:1026600001B1704700B50A229FB0104821F0F2FD79
:1026700000EB8000400001300D4B029380B21EF051
:10268000D5FC1EF081F80B4B00221EF0FBF90A4A24
:10269000CDE9000105A864211FF0AAFF05A907489C
:1026A0000BF08EFB1FB05DF804FB00BFBC8702007F
:1026B000AC87020000002440E08702002C0B0020C1
:1026C000014A024908F0BEBDF087020008880200F6
:1026D00008B50A220021044821F0BCFD00EB80006F
:1026E0004000013080B208BDBC87020010B5114C1B
:1026F0009EB00A220021204621F0ACFD00EB8000B4
:1027000040000130103C80B202941EF08FFC1EF09D
:102710003BF8094B00221EF0B5F9084ACDE900014B
:1027200005A864211FF064FF05A905480BF048FBCC
:102730001EB010BDBC87020000002440E0870200EC
:102740002C0B002030B50622D1B00C4605460846B9
:10275000864920F043FA002800F08480072284494B
:10276000204620F03BFA60B9E379202B04F10704FE
:1027700003D114F8013F202BFBD07E497E480BF09B
:102780001FFB21467D4801F0A3F908B151B030BDCF
:1027900021467B480BF092F80028F7D12146794872
:1027A0000CF068FC0028F1D12146774801F02CFE9E
:1027B0000028EBD12146754801F028FC0028E5D11E
:1027C00021467348FEF75EF90028DFD121467148A3
:1027D0000BF084FE0028D9D121466F4804F0CAFFCF
:1027E0000028D3D121466D4803F054F90028CDD1FB
:1027F00021466B4803F0A2FB0028C7D12146694857
:10280000FEF71AF80028C1D1214667480AF0E6FC15
:102810000028BBD1214658480BF014FD0028B5D143
:102820002846214608F094FC0028AFD104225F49D5
:10283000204620F0D3F918B304225D49204620F049
:10284000CDF9002800F08C8007225A49204620F05C
:10285000C5F90346002871D02246574946480BF077
:102860006BFB93E7554944480BF0AAFAA379202B58
:1028700004F1060485D114F8013F202BFBD080E73A
:102880004F4B504A504D68464FF4A0711FF0B0FEB8
:10289000694639480BF094FA4C4B4D4A68464FF460
:1028A000A0711FF0A5FE694633480BF089FA0FCDE1
:1028B0006C460FC40FCD0FC42B6824F8023B454D66
:1028C0002D481B0C694623700BF07AFA0FCD6C462D
:1028D0000FC40FCD0FC495E80F0084E80F006946C0
:1028E00025480BF06DFA24480BF0F6FA2C4803F05B
:1028F000A5FA2D480AF0D4FA284802F09FFA364883
:1029000006F03CFB1D4800F07FFF1F4801F060FD12
:102910001B480AF0BDFF1B480CF052FB1B4801F09E
:102920003FFB1B48FEF798F81A480BF0A3FD1A4826
:1029300004F00AFF1B48FDF79BFD27E76946114895
:10294000009308F067FC6946154808F063FC694687
:10295000114808F05FFC69460B4808F05BFC15E77E
:10296000211D1D4806F0E4FF10E700BF0C8802009F
:10297000348802003C8802002C0B0020E419FF1F61
:102980007C0A0020A40C0020901AFF1F441AFF1F8D
:102990006019FF1F140C0020081EFF1FB81AFF1F2C
:1029A000C01BFF1F5C19FF1FC00900205C880200CC
:1029B00008890200108902001889020014880200A8
:1029C000C00C002064880200B4880200AC870200BA
:1029D00094880200D88802003809002008F0E2BB81
:1029E00010B504464068034B236008B114F0D6FAD2
:1029F000204610BDDC83020010B5074C10F01EF914
:102A0000204608F09BFB054B23602046044A0549FD
:102A1000BDE810401EF010BFB019FF1FA8870200CC
:102A2000E007FF1FE1290000F0B541F658320F24FE
:102A3000DFF830E0C0F8381108270021AC2640F25A
:102A4000137582600422C0F800E080F82870468583
:102A500085850471C47141714173827180F82720AA
:102A6000F0BD00BFA08601002DE9F047478D00238F
:102A70000446037338461EF0D9FAA68D80463046C8
:102A80001EF0D4FA41461EF01FFA814601464FF06F
:102A900080401EF0D7FB4FF07C51054648461EF0A3
:102AA0001DFB41461EF012FA294600F100401EF0BF
:102AB00015FBE7850346C4F8B000C4F8B400C4F8B9
:102AC000B800C4F8BC00C4F8C000A4F84E60278663
:102AD000A4F850606786A4F85260A786A4F85460F2
:102AE000E786A4F856602787A4F8586025676567CD
:102AF000A567E567C4F88050C4F88450C4F8C400E2
:102B0000C4F8C800C4F8CC00C4F8D000C4F8D4009D
:102B1000C4F8D800C4F8DC00C4F8E000C4F8E4004D
:102B20006787A4F85A60A787A4F85C60E787A4F8D1
:102B30005E60A4F84070A4F86060A4F84270A4F845
:102B40006260A4F84470A4F86460A4F84670A4F825
:102B50006660A4F84870A4F86860C4F88850C4F8A7
:102B60008C50C4F89050C4F89450C4F89850C4F8ED
:102B70009C50C4F8A050C4F8A450A4F84A70D4F8EB
:102B80003801A4F86A60A4F84C70A4F86C60C4F82A
:102B9000A850C4F8E830C4F8AC50C4F8EC3003686E
:102BA00021681B6A4FF49B72BDE8F047184700BFCD
:102BB00030B43C4B02791A70002966D00A885A70EA
:102BC0000A884C88C2F3022242EAC4029A704A88F8
:102BD0008C88C2F3451242EA8412A410DA701C7188
:102BE0008C88CA88C4F3802444EA42045C710C894E
:102BF000C2F3C31242EA04129A714A89C4F306145A
:102C000044EAC21455101D72DC718C89C2F3412252
:102C100042EA84025A72CA89C4F3841444EA421410
:102C2000D2109C72DA720A8A1A734C8AC2F3022298
:102C300042EAC4025A738A8AC4F3451444EA8214ED
:102C400095109C73DD73CD8AC2F3802242EA45025F
:102C50001A740C8BC5F3C31545EA04155D744A8BD1
:102C6000C4F3061444EAC21455109C74DD748C8BB2
:102C7000C2F3412242EA84021A75CA8BC4F3841457
:102C800044EA4214D2105C759A750022DA754279D2
:102C9000D0F838011A76036802495B68192230BC03
:102CA000184700BFC019FF1F2DE9F04F8FB00F4626
:102CB0000590202206A800211FF03EFA002F56D0D2
:102CC000059A02F2271304931346AC3203921A4674
:102CD0006C3302930DF11603019302F584794FF0E2
:102CE00000081BE03868039B53F8041F03931EF091
:102CF000EBF8029B53F8041F02931EF0A3FA1EF098
:102D0000EFFB019B08F1040823F8020FB8F1400F14
:102D100007F1040709F10109019328D0049A12F878
:102D2000013F0492002BDDD0059B99F80050D3F8A9
:102D3000F43053F80840BCB1012D206812D94FF08F
:102D4000010B3E68DA4601460AF1010A30461EF0E0
:102D5000C5F95FFA8AFA54F82B101EF0B7F85545FA
:102D6000D346F0D83860BEE700203860BBE706A93C
:102D70000598FFF71DFF0FB0BDE8F08FF8B50D46C1
:102D800000EB41010446CA85A1F84E3010461F46AB
:102D90001EF04CF9064638461EF048F931461EF042
:102DA00093F8014607464FF080401EF04BFA04EBC3
:102DB00085044FF07C510546206738461EF08EF999
:102DC00031461EF083F8294600F100401EF086F9D6
:102DD000C4F8B000F8BD00BF3AB133B100EB410117
:102DE000C88D1080B1F84E201A807047D2B32DE9FB
:102DF000F843D0F8F060144698468946074696B3E3
:102E00000FFA89F556F8250028B31EF0C1FD4FEAE8
:102E10008800D7F8F0601EF0B3FD46F82500B8F141
:102E2000000F10D0D7F8F03008F1FF3653F82550D6
:102E3000F6B2043D04EB8606221F52F8044F45F813
:102E4000044FB242F9D14F44012387F8F88087F844
:102E50001831BDE8F8834FEA88001EF091FD46F86E
:102E60002500DCE7704740201EF08AFDC7F8F0001F
:102E70000646C5E7D2B130B4451895F8F840A4B17C
:102E80009BB1D0F8F00050F82100043A043800213A
:102E900001E08B4209D050F8044F42F8044F013151
:102EA00095F8F840C9B28C42F3D830BC704700BFE7
:102EB000D2B32DE9F843D0F8F46014469846894619
:102EC000074696B30FFA89F556F8250028B31EF089
:102ED0005FFD4FEA8800D7F8F4601EF051FD46F818
:102EE0002500B8F1000F10D0D7F8F43008F1FF3604
:102EF00053F82550F6B2043D04EB8606221F52F823
:102F0000044F45F8044FB242F9D14F44012387F8EA
:102F1000088187F82831BDE8F8834FEA88001EF061
:102F20002FFD46F82500DCE7704740201EF028FD05
:102F3000C7F8F4000646C5E7D2B130B4451895F895
:102F40000841A4B19BB1D0F8F40050F82100043A34
:102F50000438002101E08B4209D050F8044F42F8B8
:102F6000044F013195F80841C9B28C42F3D830BC06
:102F7000704700BF38B5D0F8F030054663B1002483
:102F80001859043418B11EF003FDD5F8F030402C68
:102F9000F6D118461EF0FCFCD5F8F43063B10024DD
:102FA0001859043418B11EF0F3FCD5F8F430402C55
:102FB000F6D118461EF0ECFC284638BDF8B52F4D6A
:102FC000EB69DB07044646D50EF084FF2B6AA26846
:102FD000C01A82423CBF0023237300260127D4F885
:102FE000380103681B699847002832DD0EF072FF34
:102FF000D4F8383128621A68184653699847237BF9
:10300000C0B2A0738BB92379834202D02673607358
:10301000E5E7627B6379934204D0E379A1791340B9
:103020009942F3D127736073D9E7182B04DCE218B7
:103030000133DBB290732373192BE8D16379834298
:1030400017D0E379A2791840824212D00020207371
:10305000F8BD0020F8BD05F11C0011F081FF00282B
:10306000B2D00EF037FF286205F11C0011F07EFF90
:10307000AAE7002323730120F8BD00BFC019FF1F7A
:103080002DE9F0410D46174698460446FFF796FF96
:10309000002800F0A580002D00F08E80227CE37BCC
:1030A00043EA0223C3F30A032B80637C227C5B0187
:1030B00043EAD203C3F30A036B80A27C637CE17C06
:1030C000920042EA931343EA8123C3F30A03AB80DD
:1030D000237DE27CDB0143EA5203C3F30A03EB8066
:1030E000637D227D1B0143EA1213C3F30A032B8184
:1030F000A27D637DE17D520042EAD31343EA41237E
:10310000C3F30A036B81237EE27D9B0143EA9203B2
:10311000C3F30A03AB81637E227EDB0043EA5213D2
:10312000EB81E27EA37E43EA0223C3F30A032B82F0
:10313000237FE27E5B0143EAD203C3F30A036B827F
:10314000217F637FA27F9B0043EA911141EA8221A4
:10315000C1F30A01A982E37FA27FDB0143EA5203A4
:10316000C3F30A03EB8294F82030E27F1B0143EAA9
:103170001213C3F30A032B8394F8216094F82010F0
:1031800094F82230760046EAD11141EA4321C1F396
:103190000A01698394F8233094F822209B0143EAC2
:1031A0009203C3F30A03AB8394F8243094F82320EA
:1031B000DB0043EA5213EB83B8F1000F08D094F818
:1031C000253094F82720134018BF012388F80030D9
:1031D00037B194F8253094F82820134002D13B7081
:1031E000BDE8F08101233B70BDE8F0812DE9F04F8F
:1031F0008FB00F4606A904460490FFF741FF0590E3
:1032000000284FD023466C3322460DF1160102935D
:10321000AC3204F2171303910192009304F1F80900
:103220004FF00008039B33F8020F03931DF002FFD9
:10323000029B53F8041F02931DF050FF019B53F8AB
:10324000041F01931DF042FE009A12F8013F009204
:1032500004463860EBB1049B99F80060D3F8F03075
:1032600053F8085015B3012E296811D94FF0010BFE
:10327000DA4620461DF032FF55F82B101DF026FED1
:103280000AF1010A5FFA8AFA56450146D346F0D898
:10329000396008F10408B8F1400F07F1040709F19B
:1032A0000109BFD105980FB0BDE8F08F0021EFE70D
:1032B000F8B500EB410500EB8104E88D1DF0B6FE8A
:1032C0000646B5F84E001DF0B1FE31461DF0FCFD7E
:1032D000014607464FF080401DF0B4FF4FF07C518F
:1032E0000546206738461DF0F9FE31461DF0EEFD1B
:1032F000294600F100401DF0F1FEC4F8B000F8BD11
:10330000CAB10129106815D92DE9F04101251646E9
:1033100098460F462C460146013440461DF0DEFE1D
:10332000E4B256F825101DF0D1FDBC422546F2D37B
:10333000BDE8F08170470020704700BF38B50446F3
:103340000023264A26492748A361E361236263627A
:10335000A362E362236363632264A2642265A063C1
:10336000E1636164E1644FF4A07013F013FE1E4941
:103370000546FDF7D9FF25604FF4A07013F00AFE53
:103380001A490546FDF7D0FF65604FF4A07013F0B1
:1033900001FE17490546FDF7C7FFA5604FF4A07071
:1033A00013F0F8FD13490546FDF7BEFFE5604FF445
:1033B000A07013F0EFFD10490546FDF7B5FF25613C
:1033C0004FF4A07013F0E6FD0C490546FDF7ACFF85
:1033D0000023656184F85C30204638BD0000A040C1
:1033E0000000A0C000007A44348A02003C8A020037
:1033F000448A02004C8A0200548A02005C8A02005D
:1034000038B5044600681A4DFEF7DAFD6068FEF72D
:10341000D7FDA068FEF7D4FDE068FEF7D1FD206976
:10342000FEF7CEFD6069FEF7CBFD616B2846FDF728
:1034300051F8A16B2846FDF74DF8E16B2846FDF7E2
:1034400049F8216C2846FDF745F8616C2846FDF7E0
:1034500041F8A16C2846FDF73DF8E16C2846FDF7E0
:1034600039F8216D2846BDE83840FDF733B800BF74
:103470005C19FF1F38B5044600681C4DFEF72CFE92
:103480006068FEF729FEA068FEF726FEE068FEF7FA
:1034900023FE2069FEF720FE6069FEF71DFE284628
:1034A000FDF74EF860632846FDF74AF8A06328460A
:1034B000FDF746F8E0632846FDF742F82064284609
:1034C000FDF73EF860642846FDF73AF8A064284608
:1034D000FDF736F8E0642846FDF732F80449206528
:1034E0000448BDE838400AF06BBC00BF5C19FF1F00
:1034F000648A02002C0B00202DE9F047234A244F58
:10350000244D82B00446131F2646C068009304F180
:1035100024013B46FEF7FEFA4FF0000856F81C0B5C
:10352000CDF8008004F1180A51463B1D2A4605F1EA
:103530000409FEF7EFFA6068CDF8008031464A468C
:1035400007F10803FEF7E6FAA068CDF8008007F15E
:103550000C0305F1080204F12001FEF7DBFA2069F3
:103560000095534605F59A7204F12801FEF7D2FA48
:103570006069CDF80090334605F59C7204F12C018A
:10358000FEF7C8FA02B0BDE8F08700BF201EFF1F9B
:10359000A41AFF1F981CFF1F2DE9F043B1B00C4681
:1035A0000891064600E008942546013428781EF06C
:1035B000A9F90028F7D1202128461FF067F80990C3
:1035C000002879D0284609A920F086FD09A980465F
:1035D000099820F081FD09A90746099820F07CFD93
:1035E00008A90546099820F077FD089A099B9A4298
:1035F000044659D9414B93F841303BB940494148C1
:103600000AF0DEFB012031B0BDE8F083D6F834903B
:10361000404649461DF000FF00283AD0C6F82490E5
:10362000D6F83C80384641461DF0F6FE38B3C6F861
:103630002880776C284639461DF0EEFEB0B1F7625F
:10364000F56C204629461DF0E7FE50B9356D204641
:1036500029461DF0FFFE20B90120346331B0BDE8DA
:10366000F0830120356331B0BDE8F083B76C2846A4
:1036700039461DF0EFFE0028E1D1F562E0E7D6F80B
:103680004080384641461DF0E5FE0028CFD1B762A4
:10369000CFE7D6F83890404649461DF0DBFE0028BB
:1036A000BCD1C6F82480BBE7174916480AF088FB4E
:1036B000012031B0BDE8F083306B1DF065F8CDE935
:1036C0000601F06A1DF060F8CDE90401B06A1DF052
:1036D0005BF8CDE90201706A1DF056F80B4ACDE99E
:1036E00000010AA896211EF083FF0AA905480AF0E6
:1036F00067FB012031B0BDE8F08300BFA40C0020BF
:103700008C8A02002C0B0020A08A0200D88A0200BA
:1037100070B5B8B00C461091064600E010942546EE
:10372000013428781EF0EEF80028F7D12021284631
:103730001EF0ACFF119040B311A9284620F0CCFC3C
:1037400011A97063119820F0C7FC11A9B0631198FA
:1037500020F0C2FC00F100433064F36311A911981A
:1037600020F0BAFC00F10043B064736410A9119812
:1037700020F0B2FC109A119B30659A4200F1004093
:10378000F06436D0012038B070BD306D1CF0FCFF05
:10379000CDE90E01F06C1CF0F7FFCDE90C01B06C27
:1037A0001CF0F2FFCDE90A01706C1CF0EDFFCDE9D1
:1037B0000801306C1CF0E8FFCDE90601F06B1CF04D
:1037C000E3FFCDE90401B06B1CF0DEFFCDE902019F
:1037D000706B1CF0D9FF094ACDE9000112A89621AF
:1037E0001EF006FF12A906480AF0EAFA012038B0D6
:1037F00070BD044902480AF0E3FAC3E7288B0200CF
:103800002C0B0020EC8A020010B5154C15492046FF
:103810000AF0D6FA204614490AF0D2FA2046134993
:103820000AF0CEFA204612490AF0CAFA2046114997
:103830000AF0C6FA204610490AF0C2FA20460F499B
:103840000AF0BEFA20460E490AF0BAFA20460D499F
:103850000AF0B6FA20460C49BDE810400AF0B0BAAA
:103860002C0B0020588B0200708B02009C8B0200F6
:10387000E48B02002C8C0200648C0200AC8C0200F1
:10388000F48C0200208D0200748D020038B50446CD
:1038900000680D46FDF7B8FD30B116491648012401
:1038A0000AF08EFA204638BD29466068FDF7ACFD67
:1038B0000028F2D12946A068FDF7A6FD0028ECD12A
:1038C0002946E068FDF7A0FD0028E6D129462069D9
:1038D000FDF79AFD0028E0D160692946FDF794FDC7
:1038E00004460028D9D1054903480AF069FA204660
:1038F00038BD00BFAC8D02002C0B00209C8D020057
:1039000030B5384B04460D4693E80700C5B06B460A
:1039100003C300211A700DF1090040F205121EF0D8
:103920000BFC29462068FEF77FFD98B120684FF414
:10393000837202A9FEF702F80830C0F587722A499F
:1039400068441FF09BF9694628480AF039FA0120BB
:1039500045B030BD29466068FEF766FD38B1606845
:103960004FF4837202A9FDF7E9FF0830E5E7294625
:10397000A068FEF759FD60B92946E068FEF754FDDE
:1039800078B1E0684FF4837202A9FDF7D7FF0830E1
:10399000D3E7A0684FF4837202A9FDF7CFFF083088
:1039A000CBE729462069FEF73FFD68B929466069E3
:1039B000FEF73AFD054678B160694FF4837202A9BB
:1039C000FDF7BCFF0830B8E720694FF4837202A905
:1039D000FDF7B4FF0830B0E7054904480AF0F0F9F4
:1039E0002846B5E724890200B0B202002C0B002063
:1039F000B88D0200F8B507460D462C4601352078F3
:103A00001DF080FF0028F8D1202120461EF03EFE48
:103A100000283ED0451E15F8016F30461DF072FF9C
:103A20000028F8D1202E34D921463846FFF72EFF42
:103A30000446002C2BD11A491A480AF0C1F91A4938
:103A400018480AF0BDF9194916480AF0B9F9184999
:103A500014480AF0B5F9174912480AF0B1F91649A5
:103A600010480AF0ADF915490E480AF0A9F91449B1
:103A70000C480AF0A5F913490A480AF0A1F91249BD
:103A800008480AF09DF9114906480AF099F92046BC
:103A9000F8BD21463846FFF733FF0446C9E700BFAB
:103AA000D08D02002C0B0020588B0200708B02007E
:103AB0009C8B0200E48B02002C8C0200648C0200C0
:103AC000AC8C0200F48C0200208D0200748D020088
:103AD00038B504220C460546084612491FF07EF808
:103AE00098B10322104920461FF078F898B10522BA
:103AF0000E4920461FF072F808B1002038BD611D44
:103B00002846FFF705FE012038BD211D2846FFF796
:103B100071FF012038BDE11C2846FFF73DFD012063
:103B200038BD00BFE88D0200F08D0200F88D020064
:103B300010B504460068FDF741FC6068FDF73EFCE7
:103B4000A068FDF73BFCE068FDF738FC2069FDF755
:103B500035FC6069FDF732FC0023A361E361236259
:103B60006362A362E362236310BD00BF38B590F8BF
:103B70005C30002B45D00446C0680378002B41D14F
:103B8000304D2069636A6B610378002B42D1606914
:103B90000023A3610378002B43D10023E361206855
:103BA000226B03782262002B47D10023AB6160684F
:103BB0000378002B3DD10023EB61A0680378002B34
:103BC00033D100232B626D691F491E4C28461DF01E
:103BD00023FCB0B128461C491DF034FB01460546C4
:103BE000A0691DF07BFA237CA061032B09D0294634
:103BF000E0691DF073FA2946E061206A1DF06EFA53
:103C0000206238BD0021FDF78DFF20690D4D03783E
:103C1000002BBCD00021FDF785FF60690378002BE5
:103C2000BBD00021FDF77EFFB9E70021FDF77AFF49
:103C3000C9E70021FDF776FFBFE70021FDF772FF1E
:103C4000B5E700BF901AFF1F000048432DE9F0417F
:103C5000476B0446384616461D4688461DF0FAFB5B
:103C600030B9A76B404639461DF0F4FB002831D02F
:103C70006762E76B314638461DF0ECFB28B9276CCC
:103C8000304639461DF0E6FB10B3A762666C294644
:103C900030461DF0DFFB28B9A66C284631461DF0E2
:103CA000D9FB98B1E662E56C069928461DF0D2FB77
:103CB00048B9256D069829461DF0CCFB18B9069B1E
:103CC0002363BDE8F0812563BDE8F081E562EAE7A2
:103CD000A662DBE7C4F82480CBE700BF08B50EF08E
:103CE000ADFF0248BDE80840FFF728BBE419FF1FFD
:103CF000F8B5324EF37A0746BBB172B6F37AD907FC
:103D00001A4606D52E49F26808680240B2610A6078
:103D10001A469D0706D52B4933690868F27A034095
:103D2000F3610B60540741D462B63368264AD96800
:103D3000914206D0254C264826491C60DA6018615D
:103D4000196097F8400001210CF078FD326807F106
:103D50000F0007F133054FF00044C11E11F8013B7D
:103D6000D4625363D36A002BFCDA8142936BF5D1A2
:103D7000C81C8542F1D1002197F840000CF05EFD8F
:103D8000F37A0E491A4683B1D80703D5124A8969D6
:103D900011601A46990703D5104BF169F27A196040
:103DA000530702D50E4B326A1A60F8BD0D4A73698B
:103DB00011680B4033621360B6E700BFA00BFF1F12
:103DC00080E100E084E100E00320003801403F0092
:103DD0000320007800003F8000E100E004E100E003
:103DE00008E100E088E100E0674A30B4937890F899
:103DF00044409C4208D043BB01230370C3708371CD
:103E00004372937880F84430604A836C92F8902033
:103E10001C1C18BF0124944209D05D4C94F8424008
:103E2000022C04D042B3A622012302638364846B74
:103E3000002C08DD056BB1FBF5F205FB1211012921
:103E40001DD002292FD030BC70470023C824037036
:103E500003738373C3704375C3758371837780F86D
:103E60002030437280F8273080F8293044738475FD
:103E7000C47780F82840C4E782641346D7E7C16B53
:103E80000B2913D9434A0C4482FB0425E217C2EBE9
:103E9000650202EB4202A4EB8202032B57D8DFE853
:103EA00003F02436481030BCFFF722BF425C002AE2
:103EB000E8D001EB41020244002515735573957358
:103EC000E0E70B2A53D9344A82FB0342A2EBE372A8
:103ED00002EB42029B1A0133836401310B29CABFF2
:103EE0000023C163C36330BC70470B2AF5D8835CE1
:103EF000002BF2D002EB4202831890F8364090F883
:103F0000352090F834501D735C739A73E5E7234CA9
:103F100094F8E440F4B10B2AD5D8845C002CD2D0BC
:103F200002EB4202024480240025157354739473FB
:103F3000C9E70B2AC7D8845C002CC4D002EB42022C
:103F400002440024F025957314735473BBE7002BCF
:103F5000B9DCC2E70B2AB6D8855C002DB3D002EBE2
:103F600042020244F025547394731573ABE7845CEA
:103F7000002CA8D002EB420202440024F025557325
:103F8000147394739FE700BF380900207C0A002057
:103F9000A40C0020ABAAAA2A565555552C0B00207C
:103FA00070B5154E1549164DA6B0304609F008FFFC
:103FB0004722684613491DF0C1FF6946304609F0A3
:103FC000FFFE0FCD6C460FC40FCD0FC40FCD0FC435
:103FD00095E8030044F8040B30462170694609F067
:103FE000EFFE4322684608491DF0A8FF69463046A7
:103FF00009F0E6FE26B070BD2C0B0020008E0200FA
:10400000648E02001C8E02009C8E02002DE9F0419D
:10401000042282B00C460546084636491EF0DEFDF5
:1040200040B94FF001332B606B60AB60012002B0F0
:10403000BDE8F0810422304920461EF0CFFD70B962
:104040000434204601941EF05BFD052838D82B4926
:104050002B4809F0B5FE012002B0BDE8F081032233
:10406000284920461EF0BAFD0646002840D10334F8
:10407000204601941EF044FD0528E8D9204601A9F8
:104080000A2220F0E7F801A904460A22019820F04C
:10409000E1F801A90A228046019820F0DBF801A985
:1040A00007460A22019820F0D5F80B2CD3D804EB50
:1040B00044032B442E5583F80C8058739F73CAE732
:1040C000204601A90A2220F0C5F801A906460A22C5
:1040D000019820F0BFF801A904460A22019820F0B7
:1040E000B9F885F8346085F8360085F83540B2E7D0
:1040F00000209CE7E08E0200E88E0200F08E0200B5
:104100002C0B0020148F020080F8341080F835202A
:1041100080F83630704700BF03290DD8DFE801F082
:10412000281D0D0200231021C822016380F83420CD
:1041300080F8353080F836307047164B93F84030B1
:1041400021220263F3B1B4219622002380F83410B7
:1041500080F8352080F836307047002364214222F1
:1041600080F8343080F8353080F8361002637047BC
:104170006423852280F8343080F8353080F836307A
:1041800002637047C82280F8343080F8363080F8F7
:1041900035207047A40C002010B5044608461CF0DA
:1041A000F3FA0022084B1CF043FB1CF0F1FD074A18
:1041B000C31782FB0020C3EB60000228D6BF032395
:1041C0002063236310BD00BF00007940ABAAAA2A78
:1041D000704700BF704700BF30B40A4B002236243E
:1041E00021250420072183F8354083F8342083F803
:1041F00036201D6398631964DA6383F844209A6457
:1042000030BC7047441AFF1FF0B50446B1B019B175
:10421000012924D031B0F0BD204B006AB3F9AE3093
:1042200008931CF0B1FACDE90601E0691CF0ACFA84
:10423000CDE90401A0691CF0A7FACDE9020160698B
:104240001CF0A2FA164ACDE900010AA864211EF06A
:10425000CFF90AA9134809F0B3FD31B0F0BD0F4AF8
:10426000007C92F91030916B02F12804F0CC0090A0
:10427000506A0891116AD2690192039002910A4A28
:1042800007970696059504940AA896211EF0B0F9A2
:104290000AA9044809F094FD31B0F0BDC00900201E
:1042A000288F02002C0B0020448F020038B5037CBD
:1042B0000446F3B1022B21D9032B1AD1124D062348
:1042C000202205F11C0000212B741DF035FF4FF456
:1042D00016724FF4FA73EA622B6320460B4A0C49BC
:1042E00006F0B0FF20460B4A0B49BDE8384006F007
:1042F000A9BF0A490A4809F063FDEEE72022002120
:1043000008481DF019FFE8E7C0090020B08F02003F
:10431000E08F0200E48F0200189002006C8F020010
:104320002C0B0020DC09002010B5124BA4B0B3F90F
:10433000AE300446006A08931CF026FACDE9060167
:10434000E0691CF021FACDE90401A0691CF01CFA17
:10435000CDE9020160691CF017FA074ACDE90001B6
:104360000BA864211EF044F90BA9044809F028FDAC
:1043700024B010BDC0090020288F02002C0B0020A3
:10438000F0B5104B104ADF6A9E6A03F1300132C962
:10439000B1B008955D6A07941C6A0691D9690191CC
:1043A0000597049603950294017C93F910300091CF
:1043B0000AA896211EF01CF90AA9044809F000FD7C
:1043C00031B0F0BDC0090020448F02002C0B00204A
:1043D00038B5094C09490546204609F0F1FC284644
:1043E00006F004FF2046064909F0EAFC204605498C
:1043F000BDE8384009F0E4BC2C0B002020900200FE
:10440000389002008890020070B582B006460C46D3
:1044100006F09EFEB8B905460422224920461EF049
:10442000DDFB98B9201D02AD1F4C45F8040D04F1C9
:10443000200600E001980A2229461FF00BFF44F8ED
:10444000040FB442F6D1012002B070BD0422174916
:1044500020461EF0C3FB10B1284602B070BD02AD6D
:10446000201D45F8040D0A2229461FF0F3FE2946B7
:1044700004460A2201981FF0EDFEA31E062B9CBFE6
:104480000B4B1C7402280AD0032808D0012806D040
:10449000012333740749084809F092FCD3E73074CC
:1044A000D1E700BFD4900200D8090020DC900200C0
:1044B000C0090020E49002002C0B00202DE9F04FF1
:1044C000A34E4569337C032B83B004461FD1F06CA7
:1044D0001CF05AF98046706C89461CF0ABFD1CF04C
:1044E00053F999A3D3E900231CF0A2F902460B4625
:1044F000404649461BF0E8FF42464B461CF0C2FAD4
:104500001CF08EFC014628461CF0E8FD0546237C85
:10451000022B00F02581032B00F0BA80012B09D07B
:104520008C498D4809F04CFC204603B0BDE8F04FA3
:1045300006F038BE894E96F91030042B00F09A82AE
:10454000062B00F0B881082BEED1D4F8189028463D
:1045500049461CF0B9FCD4F81C80414683461CF047
:10456000B3FC8246F069276A1CF064FD394601906D
:1045700050461CF0A9FC019B014618461CF0A6FC05
:104580001CF088FFB087306A1CF054FD394601905A
:1045900050461CF09BFC019B014618461CF096FC03
:1045A0001CF078FF4146F08758461CF08FFC82468D
:1045B000706A1CF03FFD3946834650461CF084FC6F
:1045C000014658461CF082FC1CF064FFA6F840002F
:1045D000B06A1CF02FFD5146834638461CF076FC2D
:1045E000014658461CF072FC1CF054FF4946A6F8E0
:1045F000420028461CF06AFC0146054640461CF075
:1046000065FC8146F06A1CF015FD39468246484635
:104610001CF05AFC014650461CF058FC1CF03AFFB6
:10462000A6F84400306B1CF005FD4946824638462A
:104630001CF04CFC014650461CF048FC1CF02AFFC4
:104640004146A6F8460028461CF03EFC0546706B25
:104650001CF0F0FC3946804628461CF035FC01462B
:1046600040461CF033FC1CF015FFA6F84800B06B68
:104670001CF0E0FC2946804638461CF027FC014629
:1046800040461CF023FC1CF005FFA6F84A004BE74F
:10469000A769324E394628461CF016FC8046F06960
:1046A0001CF0C8FC41461CF011FC1CF0F3FEB08766
:1046B000306A1CF0BFFC41461CF008FC1CF0EAFE0E
:1046C0003946F08728461CF001FC0546706A1CF04C
:1046D000B1FC29461CF0FAFB1CF0DCFEA6F84000F9
:1046E000B06A1CF0A7FC29461CF0F0FB1CF0D2FEBF
:1046F000256AA6F84200F06AE7691CF09BFC39467F
:10470000804628461CF0E0FB014640461CF0DEFBDC
:104710001CF0C0FEA6F84400306B1CF08BFC394640
:10472000804628461CF0D2FB014640461CF0CEFBDA
:104730001CF0B0FEA6F84600204603B0BDE8F04FDE
:1047400006F030BDAFF300807B14AE47E17A643FE2
:10475000A40C0020109102002C0B0020C0090020A6
:10476000914E96F91030042B00F0DD81062B00F0FD
:104770001D81082B7FF4D8AED4F81C80276A4146EF
:1047800028461CF0A1FB39461CF09EFB8146F069CF
:104790001CF050FC014648461CF098FB1CF07AFEC9
:1047A000D4F81890B087494628461CF08DFB414646
:1047B00082461CF089FB39461CF088FB8346306A30
:1047C0001CF038FC014658461CF080FB1CF062FED1
:1047D000F087706A1CF02EFC3946834650461CF068
:1047E00073FB014658461CF071FB1CF053FE51460A
:1047F000A6F8400040461CF069FB39461CF066FBF9
:104800008246B06A1CF016FC014650461CF05EFB66
:104810001CF040FE4146A6F8420028461CF056FB1C
:1048200039461CF051FB8246F06A1CF003FC01463D
:1048300050461CF04BFB1CF02DFE4946A6F84400E8
:1048400028461CF043FB0546014640461CF03EFB53
:1048500039461CF03BFB8146306B1CF0EBFB0146FC
:1048600048461CF033FB1CF015FEA6F84600706BA2
:104870001CF0E0FB3946814628461CF025FB01462A
:1048800048461CF023FB1CF005FE4146A6F84800F4
:1048900028461CF019FB39461CF018FB0546B06B86
:1048A0001CF0C8FB014628461CF010FB1CF0F2FD72
:1048B000A6F84A0038E6D4F81890284649461CF075
:1048C00003FBD4F81C80276A414682461CF0FCFAA0
:1048D00039461CF0F9FA8346F0691CF0ABFB01463F
:1048E00058461CF0F3FA1CF0D5FDB087306A1CF076
:1048F000A1FB3946834650461CF0E8FA014658466B
:104900001CF0E4FA1CF0C6FD4146F08750461CF04E
:10491000DDFA39461CF0D8FA8246706A1CF08AFB30
:10492000014650461CF0D2FA1CF0B4FD4946A6F8E8
:10493000400028461CF0CAFA0146054640461CF0D5
:10494000C5FA39461CF0C2FA8146B06A1CF072FB07
:10495000014648461CF0BAFA1CF09CFDA6F842003D
:10496000F06A1CF067FB3946814628461CF0ACFA19
:10497000014648461CF0AAFA1CF08CFD4146A6F8F8
:10498000440028461CF0A0FA39461CF09FFA054660
:10499000306B1CF04FFB014628461CF097FA1CF0C8
:1049A00079FDA6F84600BFE5C0090020D4F81C80B8
:1049B000276A414628461CF087FA39461CF084FADB
:1049C0008146F0691CF036FB014648461CF07EFA31
:1049D0001CF060FDD4F81890B087494628461CF0BA
:1049E00073FA414682461CF06FFA39461CF06EFAA3
:1049F0008346306A1CF01EFB014658461CF066FADE
:104A00001CF048FD5146F08740461CF05FFA3946DD
:104A10001CF05AFA8246706A1CF00CFB01465046A4
:104A20001CF054FA1CF036FD4146A6F8400028461A
:104A30001CF04CFA39461CF049FA8246B06A1CF068
:104A4000F9FA014650461CF041FA1CF023FD494694
:104A5000A6F8420028461CF039FA014605464046B1
:104A60001CF034FA39461CF02FFA8146F06A1CF02B
:104A7000E1FA7DE7D4F81890284649461CF024FA5C
:104A8000D4F81C80276A414682461CF01DFA39463C
:104A90001CF01AFA8346F0691CF0CCFA014658461D
:104AA0001CF014FA1CF0F6FC4146B08750461CF08E
:104AB0000DFA39461CF00AFA8246306A1CF0BAFA3E
:104AC000014650461CF002FA1CF0E4FC4946F0870F
:104AD00028461CF0FBF90146054640461CF0F6F955
:104AE00039461CF0F1F98146706A1CF0A3FA0146C0
:104AF00048461CF0EBF91CF0CDFC4146A6F84000FE
:104B000028461CF0E1F939461CF0E0F90546B06A88
:104B10001CF090FA014628461CF0D8F91CF0BAFCAB
:104B2000A6F8420000E5D4F81C80276A41462846D2
:104B30001CF0CAF939461CF0C7F98146F0691CF02F
:104B400079FA014648461CF0C1F91CF0A3FCD4F8E0
:104B50001890B087494628461CF0B6F939461CF033
:104B6000B5F98246306A1CF065FA014650461CF0E1
:104B7000ADF91CF08FFC4946F08728461CF0A6F9D9
:104B800039461CF0A1F98146706A1CF053FA0146BF
:104B900048461CF09BF91CF07DFC4146A6F84000FD
:104BA00028461CF093F9AEE708B5406905491CF0AA
:104BB00033FC10B90346D8B208BD4FF00103D8B298
:104BC00008BD00BF0000C842017C0148FBF794BC4F
:104BD0005C19FF1F10B504460348FBF7BBFC431EDE
:104BE000022B98BF207410BD5C19FF1F10B504463E
:104BF0004068034B236008B112F0D0F9204610BD85
:104C0000DC83020010B5074C204606F097FA064BED
:104C10002360012320462374044A0549BDE810405F
:104C20001CF00ABE901AFF1F248F0200E007FF1F2E
:104C3000ED4B0000FFFFFFFF38B5174C0021206847
:104C400015F088FF63681449062BD8BF04EB4302B4
:104C500003F10103D8BFA2F8E800104A63604FF4E3
:104C60008075062B156006DDB4F8F630156001334B
:104C7000A4F8F63038BD0A4A086812F823104FF03D
:104C8000FF3215F0C7FE074B1D60B4F8F630013354
:104C9000A4F8F63038BD00BFB41AFF1F88F00F40EB
:104CA000E407FF1F84F00F4038B5174C012120683E
:104CB00015F050FF63681449062BD8BF04EB43027C
:104CC00003F10103D8BFA2F8E800104A63604FF473
:104CD0008075062B156006DDB4F8F83015600133D9
:104CE000A4F8F83038BD0A4A086812F823104FF0CB
:104CF000FF3215F08FFE074B1D60B4F8F83001331A
:104D0000A4F8F83038BD00BFB41AFF1F88F00F4078
:104D1000E407FF1F84F00F402DE9F041234B244AA4
:104D200002620025002601274FF064080446456012
:104D30008560456143620773C0F810808661C66173
:104D400029462C2228301DF0F7F91A4A1A4BE6653D
:104D50002666666684F8687084F86970E566626540
:104D600025676567A567A4F87C50C4F88050C4F82F
:104D700084502046C4F88850C4F88C50C4F8A080F1
:104D8000C4F8A450C4F8A850C4F8AC50C4F8B0504B
:104D9000C4F8B450C4F8BC6084F8D850C4F8DC50EF
:104DA00084F8E070C4F8B830BDE8F0819A99894081
:104DB000666656400000F0421E1EC2BB10B51C4C79
:104DC00023680C21D86F16F0C7FC23680C21D3F898
:104DD000800016F0C1FC23680021D86F16F03CFB60
:104DE00023680021D3F8800016F036FB23680221E7
:104DF000D86F16F069FB23680221D3F8800016F003
:104E000063FB002126200BF057FD002127200BF02B
:104E100053FD23680749D86FFF2216F013FF23685C
:104E20000549D3F88000FF22BDE8104016F00ABF04
:104E3000B41AFF1F394C0000A94C000030B51B4CC0
:104E40001B49CDB04325204608F0BAFF2A4601A8E9
:104E500018491DF073F801A9204608F0B1FF82221D
:104E600001A815491DF06AF801A9204608F0A8FF1D
:104E7000662201A811491DF061F801A9204608F039
:104E80009FFF4B2201A80E491DF058F801A92046AA
:104E900008F096FF2A4601A80A491DF04FF801A91B
:104EA000204608F08DFF4DB030BD00BF2C0B002018
:104EB0005891020074910200B89102003C920200E5
:104EC000A4920200F09202002DE9F04FC24B85B08F
:104ED000044618681CF0AEF801464FF07E501CF0F6
:104EE000B1F9014606464FF07E501BF0EDFFD4F8B5
:104EF000A830012B074600F00F8140F3C781237BC8
:104F0000B64D002B40F09480B54B0293D4F8B430EA
:104F1000632B00F3E480D4F8AC10D4F8B020B5F8DB
:104F2000F0E0B5F8F20001338E440244642BC4F87B
:104F3000B430C4F8ACE0C4F8B020A84900F00D8249
:104F4000B1F8EC00D4F81C801CF070F81BF01CFCCD
:104F50009FA3D3E900231BF06BFC0022A14B1BF0A5
:104F600067FCA14B00221BF063FC1BF059FF236E72
:104F7000D4F864B000938146B5F8F4001CF056F8FC
:104F80009A491CF0ABF841468246A06138461CF0B5
:104F9000A5F85146804630461CF0A0F80146404630
:104FA0001BF094FF0099E06138461CF097F84946E1
:104FB000804630461CF092F8014640461BF086FFC2
:104FC0002066B5F8EE001CF031F81BF0DDFB80A385
:104FD000D3E900231BF02CFC0022824B1BF028FCA1
:104FE0000022814B1BF024FC1BF01AFF31461CF001
:104FF00075F85946064638461CF070F801463046AA
:105000001BF064FF029A6066002311782868236011
:105010004FF0FF3215F0FEFCD4F8A830744A01338B
:105020004FF480711160C4F8A83005B0BDE8F08F6E
:10503000D4F8A080B5F8E810636FE26ED4F8109051
:1050400008FB01F08342B8BF03468242A8BF024674
:10505000013B0132981A90FBF8F0484563674FEA2C
:10506000480B1344E26693FBFBF3C4F89000C4F8CA
:10507000983080F2BF8000236360B5F8EAA0A06F8B
:10508000226F564908FB0AF39842B8BF18469A4265
:10509000A8BF1A460138531CC21A92FBF8F24A45BF
:1050A0002367A0670344C4F8942093FBFBF3C4F880
:1050B0009C3080F209810023A36095F8FC30002B1E
:1050C0003FF422AF464B0293BAFA8AFA4FEA5A1AD1
:1050D00083F81CA0D4F8B430632B7FF71CAFB5F86D
:1050E000EC00D4F81C801BF0A1FF1BF04DFB38A393
:1050F000D3E900231BF09CFB00223A4B1BF098FBEA
:10510000394B00221BF094FB1BF08AFE236E0093A8
:105110008146D4F864B033E0304DD4F8A030B5F80F
:10512000EA10B5F8E820B5F8EC0003FB02F24FF006
:10513000000803FB01F3E26662672367A367C4F814
:105140001C801BF073FF1BF01FFB21A3D3E900237E
:105150001BF06EFB0022234B1BF06AFB0022224B4C
:105160001BF066FB1BF05CFE814620666066834692
:105170000090D4F8B4201A4B0293632A7FF7FCAE58
:10518000B5F8F0E0D4F8B010D4F8AC00B5F8F220DF
:10519000C0EB0E00521A10441BF04CFFD4F8B810AC
:1051A0001BF09CFF00211BF091FEE16DC4F8BC00D8
:1051B000039038461BF092FF039A82461146304610
:1051C0001BF08CFF014650461BF080FEE065D3E6E5
:1051D0006666666666660A400808FF1FB41AFF1F07
:1051E000E407FF1F0000303F000059400000043C6E
:1051F00084F00F4094F87C20002A40F00A81A2F14C
:10520000993282FB00E2C017C0EB620003448B427C
:10521000BFF633AFA44BD4F880201B68012185F87A
:10522000FC1084F87C1062B39B1A2AD09F4AA048D5
:10523000A2FB0323DB08B0FBF3F01BF083FA002290
:105240009C4B1BF01FFC1BF0EBFD1BF09DFA00229A
:10525000994B1BF0EDFACDE9000160681BF094FA60
:1052600002460B461BF032F902460B46DDE900010F
:105270001BF02CF90022914B1BF004FC1BF0D0FD1D
:105280006060894B1B68C4F88030F6E68C4DB5F839
:10529000EC001BF0CBFE1BF077FA81A3D3E90023CF
:1052A0001BF0C6FA0022874B1BF0C2FA864B002285
:1052B0001BF0BEFA1BF0B4FD236ED4F81C800093E3
:1052C0008146D4F864B054E794F87D00002859D0A2
:1052D0007E494FEAE27881FB021BA8EB6B0843444E
:1052E0009A45BFF6EAAE704BD4F88C201B680021BB
:1052F00084F87D1062B39B1A2AD06C4A6C48A2FBDA
:105300000323DB08B0FBF3F01BF01CFA0022694B0F
:105310001BF0B8FB1BF084FD1BF036FA0022664B35
:105320001BF086FA8046A06889461BF02DFA0246DB
:105330000B461BF0CBF802460B46404649461BF095
:10534000C5F800225D4B1BF09DFB1BF069FDA060C2
:10535000554B1B68C4F88C30AFE65D4BB1F8EC00E0
:10536000D4F81C8083FB0E1C83FB02314FEAEE73E2
:10537000D217C3EB6C13C2EB6112C4F8AC30C4F8A3
:10538000B020E1E551484FEAE27880FB020BC8EB20
:105390006B0843449A457FF790AE434BD4F8842082
:1053A0001B68012081F8FD0084F87D0062B39B1A20
:1053B0002AD03E4A3E48A2FB0323DB08B0FBF3F0B1
:1053C0001BF0C0F900223B4B1BF05CFB1BF028FDDF
:1053D0001BF0DAF90022384B1BF02AFA8046A0684D
:1053E00089461BF0D1F902460B461BF06FF80246C6
:1053F0000B46404649461BF069F800222F4B1BF034
:1054000041FB1BF00DFDA060274B1B68C4F88430E6
:1054100053E62E4A82FB00E2C017A0EB620213445F
:105420008B427FF72AAE204BD4F888201B680021DE
:1054300084F87C1062B39B1A2AD01C4A1C48A2FB39
:105440000323DB08B0FBF3F01BF07CF90022194BBF
:105450001BF018FB1BF0E4FC1BF096F90022164B26
:105460001BF0E6F9CDE9000160681BF08DF90246FA
:105470000B461BF02BF802460B46DDE900011BF042
:1054800025F800220D4B1BF0FDFA1BF0C9FC6060F3
:10549000054B1B68C4F88830EFE500BFAFF3008010
:1054A0006666666666660A40041000E0CDCCCCCC29
:1054B000000E2707000024400000E03F00000840E5
:1054C000B41AFF1F0000303F00005940676666664F
:1054D0001F85EB51D0F8DC00C828D4BF0020012084
:1054E000704700BF2DE9F041C569C2B004460E46C1
:1054F000284664491BF0AEFFD8B160691BF09AFDE5
:10550000616A80461BF0EAFD014628461BF0A2FFB7
:10551000002840D1206A41461BF0E0FD01462846A4
:105520001BF07AFFD4F8DC30002851D0B3F57A7F35
:1055300055DB94F8D8305BB3534AD4F8D0301068B8
:10554000C51A00F1978028461BF074FD4F491BF0E7
:1055500079FE4F4AA2FB06131B09322101FB13639C
:105560000A2B07465DD0D4F8C85028461BF062FDD0
:10557000D4F8C0101BF0B2FD014638461BF06AFF9C
:1055800018B1D4F8C4309D422DDD424B9A787AB1DF
:1055900042B0BDE8F081276A284639461BF052FE2A
:1055A0001BF078FF60611BF045FD80463846B2E78E
:1055B00084F8D8201146019200920123364807F062
:1055C0009BFF3649364808F0FBFB42B0BDE8F0814E
:1055D000002BC4BF03F1FF33C4F8DC30A9E701336B
:1055E000C4F8DC30A5E7D4F8D4302949D4F8CC206D
:1055F000294881FB0361DB17C3EB611312FB053202
:1056000000210191009112B2012307F075FFD4F837
:10561000C830244922480133C4F8C83008F0D0FB10
:10562000B3E7D4F8D430D4F8CCE0D4F8C810089557
:1056300082FB0302DB17C3EB6212D4F8C0000792AF
:1056400001FB0E23CDF810E0069305911BF09CF8AA
:10565000CDE9020138461BF097F83346CDE9000149
:10566000114A0BA8DC211CF0C3FF0BA90C4808F061
:10567000A7FB78E70D490A4805F1004508F0A0FBB3
:1056800061E700BF0000A040041000E00060EA47AE
:105690001F85EB5138090020C0090020D09302007B
:1056A0002C0B0020BC93020058930200349302009C
:1056B00010B5254BCAB0B3F8EC40B3F8EE30069302
:1056C000059490F86820049218461BF0AFFC1BF07C
:1056D0005BF81BA3D3E900231BF0AAF800221B4BA5
:1056E0001BF0A6F800221A4B1BF0A2F81BF098FB47
:1056F0001BF04AF8CDE9020120461BF097FC1BF095
:1057000043F80FA3D3E900231BF092F800220F4BBC
:105710001BF08EF80E4B00221BF08AF81BF080FB6A
:105720001BF032F80B4ACDE9000109A84FF4827151
:105730001CF05EFF09A9084808F042FB4AB010BD02
:105740006666666666660A40B41AFF1F0000303F50
:1057500000005940E89302002C0B002030B5144B98
:1057600004461448B3F8E820257BB3F8EA10037F19
:10577000A068CBB004930692059507911BF004F83E
:10578000CDE9020160680C4C1AF0FEFF0B4ACDE92E
:10579000000109A84FF482711CF02AFF09A92046D4
:1057A00008F00EFB09A9204608F00AFB4BB030BDFB
:1057B000B41AFF1FE407FF1F2C0B00200494020003
:1057C000F0B5154B90F86970B3F8F22090F8E060EE
:1057D0004569B3F8F410B3F8F030CDB00446C06DAD
:1057E0000793089206970596049509911AF0CCFF45
:1057F000CDE90201E0691AF0C7FF084ACDE90001CE
:105800000BA84FF482711CF0F3FE0BA9044808F0BA
:10581000D7FA4DB0F0BD00BFB41AFF1F1C940200B0
:105820002C0B002010B5CAB0D0F8B020D0F8AC30A6
:105830000446D0F8B800079206931AF0A5FFCDE908
:1058400004010C4BE06DB3F8F220B3F8F030029392
:1058500003921AF099FF084ACDE9000109A84FF414
:1058600082711CF0C5FE09A9044808F0A9FA4AB0E3
:1058700010BD00BFB41AFF1F3C9402002C0B002087
:1058800010B4074C074908480023C4F8E830C4F8AE
:10589000EC30C4F8F030A4F8F43010BC08F090BA42
:1058A000B41AFF1F5C9402002C0B002030B51F4B74
:1058B000CFB01B680446806D0A931AF065FF656DD2
:1058C000CDE90801206B1BF0B1FB29461BF0BAFCA7
:1058D0001AF05AFFCDE90601E06A1BF0A7FB294642
:1058E0001BF0B0FC1AF050FFCDE90401A06A1BF0D8
:1058F0009DFB29461BF0A6FC1AF046FFCDE90201EC
:10590000A06B1BF093FB29461BF09CFC1AF03CFF9C
:10591000074ACDE900010DA84FF482711CF068FE22
:105920000DA9044808F04CFA4FB030BD140D00200A
:105930006C9402002C0B002010B50A220446084685
:1059400000211EF087FCA0F10100B0FA80F04009B0
:1059500084F8E00010BD00BF30B583B002AC0B4648
:1059600044F8041D0546214618460A221EF072FC22
:10597000A0F10100B0FA80F0400985F869002146E5
:105980000A2201981EF066FCA0F10100B0FA80F036
:10599000400985F8680021460A2201981EF05AFC49
:1059A000A0F10100B0FA80F04009287303B030BDC7
:1059B0002DE9F0439FB01EAC0B1D44F8683D8946AD
:1059C0000546214618461EF087FB21460A228046DE
:1059D00004981EF03FFC21460A22064604981EF059
:1059E00039FC2146074604981EF076FB0021044648
:1059F0001BF030FD78B31F4B18461C6103F01CFCF4
:105A00001D4B1E4ADB6C1E4882FB0312D917A1EB0B
:105A100062120168C5F8D0100121C5F8D4303A44AB
:105A200005A892FBF6F2C5F8CC200092C5F8C0801C
:105A3000C5F8C460134A02960197C5F8C81085F8E6
:105A4000D81064211CF0D4FD05A90F4808F0B8F95E
:105A50001FB0BDE8F0830D490B4808F0B1F9494685
:105A6000094808F0ADF90A49074808F0A9F91FB03C
:105A7000BDE8F08338090020C00900201F85EB51E4
:105A8000041000E0909402002C0B0020C49402004B
:105A900020A6020070B5062282B00C4605460846D4
:105AA0004C491DF09BF8002836D004224A49204674
:105AB0001DF094F8002849D00422484920461DF0E2
:105AC0008DF878B30322464920461DF087F8002858
:105AD00042D00422434920461DF080F8002842D0DD
